{
  "_format": "hh-sol-artifact-1",
  "contractName": "Marketplace",
  "sourceName": "src/backend/contracts/Marketplace.sol",
  "abi": [
    {
      "inputs": [
        {
          "internalType": "uint256",
          "name": "_feePercent",
          "type": "uint256"
        }
      ],
      "stateMutability": "nonpayable",
      "type": "constructor"
    },
    {
      "inputs": [],
      "name": "ReentrancyGuardReentrantCall",
      "type": "error"
    },
    {
      "anonymous": false,
      "inputs": [
        {
          "indexed": false,
          "internalType": "uint256",
          "name": "itemId",
          "type": "uint256"
        },
        {
          "indexed": true,
          "internalType": "address",
          "name": "nftContract",
          "type": "address"
        },
        {
          "indexed": false,
          "internalType": "uint256",
          "name": "tokenId",
          "type": "uint256"
        },
        {
          "indexed": false,
          "internalType": "uint256",
          "name": "price",
          "type": "uint256"
        },
        {
          "indexed": true,
          "internalType": "address",
          "name": "seller",
          "type": "address"
        }
      ],
      "name": "Offered",
      "type": "event"
    },
    {
      "inputs": [],
      "name": "feeAccount",
      "outputs": [
        {
          "internalType": "address payable",
          "name": "",
          "type": "address"
        }
      ],
      "stateMutability": "view",
      "type": "function"
    },
    {
      "inputs": [],
      "name": "feePercent",
      "outputs": [
        {
          "internalType": "uint256",
          "name": "",
          "type": "uint256"
        }
      ],
      "stateMutability": "view",
      "type": "function"
    },
    {
      "inputs": [],
      "name": "itemCount",
      "outputs": [
        {
          "internalType": "uint256",
          "name": "",
          "type": "uint256"
        }
      ],
      "stateMutability": "view",
      "type": "function"
    },
    {
      "inputs": [
        {
          "internalType": "uint256",
          "name": "",
          "type": "uint256"
        }
      ],
      "name": "items",
      "outputs": [
        {
          "internalType": "uint256",
          "name": "itemId",
          "type": "uint256"
        },
        {
          "internalType": "contract IERC721",
          "name": "nftContract",
          "type": "address"
        },
        {
          "internalType": "uint256",
          "name": "tokenId",
          "type": "uint256"
        },
        {
          "internalType": "uint256",
          "name": "price",
          "type": "uint256"
        },
        {
          "internalType": "address payable",
          "name": "seller",
          "type": "address"
        },
        {
          "internalType": "bool",
          "name": "isSold",
          "type": "bool"
        }
      ],
      "stateMutability": "view",
      "type": "function"
    },
    {
      "inputs": [
        {
          "internalType": "contract IERC721",
          "name": "_nft",
          "type": "address"
        },
        {
          "internalType": "uint256",
          "name": "_tokenId",
          "type": "uint256"
        },
        {
          "internalType": "uint256",
          "name": "_price",
          "type": "uint256"
        }
      ],
      "name": "makeItem",
      "outputs": [],
      "stateMutability": "nonpayable",
      "type": "function"
    }
  ],
  "bytecode": "0x60c060405234801561001057600080fd5b506040516109d63803806109d6833981810160405281019061003291906100b7565b60016000819055503373ffffffffffffffffffffffffffffffffffffffff1660808173ffffffffffffffffffffffffffffffffffffffff16815250508060a08181525050506100e4565b600080fd5b6000819050919050565b61009481610081565b811461009f57600080fd5b50565b6000815190506100b18161008b565b92915050565b6000602082840312156100cd576100cc61007c565b5b60006100db848285016100a2565b91505092915050565b60805160a0516108cd61010960003960006101330152600061010901526108cd6000f3fe608060405234801561001057600080fd5b50600436106100575760003560e01c806365e17c9d1461005c5780636bfb0d011461007a5780637fd6f15c14610098578063bfb231d2146100b6578063fa00afc7146100eb575b600080fd5b610064610107565b60405161007191906104fb565b60405180910390f35b61008261012b565b60405161008f919061052f565b60405180910390f35b6100a0610131565b6040516100ad919061052f565b60405180910390f35b6100d060048036038101906100cb919061057b565b610155565b6040516100e296959493929190610622565b60405180910390f35b610105600480360381019061010091906106d3565b6101de565b005b7f000000000000000000000000000000000000000000000000000000000000000081565b60015481565b7f000000000000000000000000000000000000000000000000000000000000000081565b60026020528060005260406000206000915090508060000154908060010160009054906101000a900473ffffffffffffffffffffffffffffffffffffffff16908060020154908060030154908060040160009054906101000a900473ffffffffffffffffffffffffffffffffffffffff16908060040160149054906101000a900460ff16905086565b6101e661046a565b60008111610229576040517f08c379a000000000000000000000000000000000000000000000000000000000815260040161022090610783565b60405180910390fd5b6001600081548092919061023c906107d2565b91905055508273ffffffffffffffffffffffffffffffffffffffff166323b872dd3330856040518463ffffffff1660e01b815260040161027e93929190610829565b600060405180830381600087803b15801561029857600080fd5b505af11580156102ac573d6000803e3d6000fd5b505050506040518060c0016040528060015481526020018473ffffffffffffffffffffffffffffffffffffffff1681526020018381526020018281526020013373ffffffffffffffffffffffffffffffffffffffff168152602001600015158152506002600060015481526020019081526020016000206000820151816000015560208201518160010160006101000a81548173ffffffffffffffffffffffffffffffffffffffff021916908373ffffffffffffffffffffffffffffffffffffffff160217905550604082015181600201556060820151816003015560808201518160040160006101000a81548173ffffffffffffffffffffffffffffffffffffffff021916908373ffffffffffffffffffffffffffffffffffffffff16021790555060a08201518160040160146101000a81548160ff0219169083151502179055509050503373ffffffffffffffffffffffffffffffffffffffff168373ffffffffffffffffffffffffffffffffffffffff167f655a0cf9c8db81512be9a76dc1c5ae5380b8816ce6ad659cd61b715e2999d59a600154858560405161045593929190610860565b60405180910390a36104656104b0565b505050565b6002600054036104a6576040517f3ee5aeb500000000000000000000000000000000000000000000000000000000815260040160405180910390fd5b6002600081905550565b6001600081905550565b600073ffffffffffffffffffffffffffffffffffffffff82169050919050565b60006104e5826104ba565b9050919050565b6104f5816104da565b82525050565b600060208201905061051060008301846104ec565b92915050565b6000819050919050565b61052981610516565b82525050565b60006020820190506105446000830184610520565b92915050565b600080fd5b61055881610516565b811461056357600080fd5b50565b6000813590506105758161054f565b92915050565b6000602082840312156105915761059061054a565b5b600061059f84828501610566565b91505092915050565b6000819050919050565b60006105cd6105c86105c3846104ba565b6105a8565b6104ba565b9050919050565b60006105df826105b2565b9050919050565b60006105f1826105d4565b9050919050565b610601816105e6565b82525050565b60008115159050919050565b61061c81610607565b82525050565b600060c0820190506106376000830189610520565b61064460208301886105f8565b6106516040830187610520565b61065e6060830186610520565b61066b60808301856104ec565b61067860a0830184610613565b979650505050505050565b600061068e826104ba565b9050919050565b60006106a082610683565b9050919050565b6106b081610695565b81146106bb57600080fd5b50565b6000813590506106cd816106a7565b92915050565b6000806000606084860312156106ec576106eb61054a565b5b60006106fa868287016106be565b935050602061070b86828701610566565b925050604061071c86828701610566565b9150509250925092565b600082825260208201905092915050565b7f5072696365206d757374206265206174206c6561737420312077656900000000600082015250565b600061076d601c83610726565b915061077882610737565b602082019050919050565b6000602082019050818103600083015261079c81610760565b9050919050565b7f4e487b7100000000000000000000000000000000000000000000000000000000600052601160045260246000fd5b60006107dd82610516565b91507fffffffffffffffffffffffffffffffffffffffffffffffffffffffffffffffff820361080f5761080e6107a3565b5b600182019050919050565b61082381610683565b82525050565b600060608201905061083e600083018661081a565b61084b602083018561081a565b6108586040830184610520565b949350505050565b60006060820190506108756000830186610520565b6108826020830185610520565b61088f6040830184610520565b94935050505056fea264697066735822122044176be08c50f67bcabfa91a3d919d03cfee4b2c43122775b718cb710442bf0164736f6c63430008140033",
  "linkReferences": {},
  "deployedLinkReferences": {}
}