{
  "_format": "hh-sol-artifact-1",
  "contractName": "NFT",
  "sourceName": "src/backend/contracts/NFT.sol",
  "abi": [
    {
      "inputs": [],
      "stateMutability": "nonpayable",
      "type": "constructor"
    },
    {
      "inputs": [
        {
          "internalType": "address",
          "name": "sender",
          "type": "address"
        },
        {
          "internalType": "uint256",
          "name": "tokenId",
          "type": "uint256"
        },
        {
          "internalType": "address",
          "name": "owner",
          "type": "address"
        }
      ],
      "name": "ERC721IncorrectOwner",
      "type": "error"
    },
    {
      "inputs": [
        {
          "internalType": "address",
          "name": "operator",
          "type": "address"
        },
        {
          "internalType": "uint256",
          "name": "tokenId",
          "type": "uint256"
        }
      ],
      "name": "ERC721InsufficientApproval",
      "type": "error"
    },
    {
      "inputs": [
        {
          "internalType": "address",
          "name": "approver",
          "type": "address"
        }
      ],
      "name": "ERC721InvalidApprover",
      "type": "error"
    },
    {
      "inputs": [
        {
          "internalType": "address",
          "name": "operator",
          "type": "address"
        }
      ],
      "name": "ERC721InvalidOperator",
      "type": "error"
    },
    {
      "inputs": [
        {
          "internalType": "address",
          "name": "owner",
          "type": "address"
        }
      ],
      "name": "ERC721InvalidOwner",
      "type": "error"
    },
    {
      "inputs": [
        {
          "internalType": "address",
          "name": "receiver",
          "type": "address"
        }
      ],
      "name": "ERC721InvalidReceiver",
      "type": "error"
    },
    {
      "inputs": [
        {
          "internalType": "address",
          "name": "sender",
          "type": "address"
        }
      ],
      "name": "ERC721InvalidSender",
      "type": "error"
    },
    {
      "inputs": [
        {
          "internalType": "uint256",
          "name": "tokenId",
          "type": "uint256"
        }
      ],
      "name": "ERC721NonexistentToken",
      "type": "error"
    },
    {
      "anonymous": false,
      "inputs": [
        {
          "indexed": true,
          "internalType": "address",
          "name": "owner",
          "type": "address"
        },
        {
          "indexed": true,
          "internalType": "address",
          "name": "approved",
          "type": "address"
        },
        {
          "indexed": true,
          "internalType": "uint256",
          "name": "tokenId",
          "type": "uint256"
        }
      ],
      "name": "Approval",
      "type": "event"
    },
    {
      "anonymous": false,
      "inputs": [
        {
          "indexed": true,
          "internalType": "address",
          "name": "owner",
          "type": "address"
        },
        {
          "indexed": true,
          "internalType": "address",
          "name": "operator",
          "type": "address"
        },
        {
          "indexed": false,
          "internalType": "bool",
          "name": "approved",
          "type": "bool"
        }
      ],
      "name": "ApprovalForAll",
      "type": "event"
    },
    {
      "anonymous": false,
      "inputs": [
        {
          "indexed": false,
          "internalType": "uint256",
          "name": "_fromTokenId",
          "type": "uint256"
        },
        {
          "indexed": false,
          "internalType": "uint256",
          "name": "_toTokenId",
          "type": "uint256"
        }
      ],
      "name": "BatchMetadataUpdate",
      "type": "event"
    },
    {
      "anonymous": false,
      "inputs": [
        {
          "indexed": false,
          "internalType": "uint256",
          "name": "_tokenId",
          "type": "uint256"
        }
      ],
      "name": "MetadataUpdate",
      "type": "event"
    },
    {
      "anonymous": false,
      "inputs": [
        {
          "indexed": true,
          "internalType": "address",
          "name": "from",
          "type": "address"
        },
        {
          "indexed": true,
          "internalType": "address",
          "name": "to",
          "type": "address"
        },
        {
          "indexed": true,
          "internalType": "uint256",
          "name": "tokenId",
          "type": "uint256"
        }
      ],
      "name": "Transfer",
      "type": "event"
    },
    {
      "inputs": [
        {
          "internalType": "address",
          "name": "to",
          "type": "address"
        },
        {
          "internalType": "uint256",
          "name": "tokenId",
          "type": "uint256"
        }
      ],
      "name": "approve",
      "outputs": [],
      "stateMutability": "nonpayable",
      "type": "function"
    },
    {
      "inputs": [
        {
          "internalType": "address",
          "name": "owner",
          "type": "address"
        }
      ],
      "name": "balanceOf",
      "outputs": [
        {
          "internalType": "uint256",
          "name": "",
          "type": "uint256"
        }
      ],
      "stateMutability": "view",
      "type": "function"
    },
    {
      "inputs": [
        {
          "internalType": "uint256",
          "name": "tokenId",
          "type": "uint256"
        }
      ],
      "name": "getApproved",
      "outputs": [
        {
          "internalType": "address",
          "name": "",
          "type": "address"
        }
      ],
      "stateMutability": "view",
      "type": "function"
    },
    {
      "inputs": [
        {
          "internalType": "address",
          "name": "owner",
          "type": "address"
        },
        {
          "internalType": "address",
          "name": "operator",
          "type": "address"
        }
      ],
      "name": "isApprovedForAll",
      "outputs": [
        {
          "internalType": "bool",
          "name": "",
          "type": "bool"
        }
      ],
      "stateMutability": "view",
      "type": "function"
    },
    {
      "inputs": [
        {
          "internalType": "string",
          "name": "_tokenURI",
          "type": "string"
        }
      ],
      "name": "mint",
      "outputs": [
        {
          "internalType": "uint256",
          "name": "",
          "type": "uint256"
        }
      ],
      "stateMutability": "nonpayable",
      "type": "function"
    },
    {
      "inputs": [],
      "name": "name",
      "outputs": [
        {
          "internalType": "string",
          "name": "",
          "type": "string"
        }
      ],
      "stateMutability": "view",
      "type": "function"
    },
    {
      "inputs": [
        {
          "internalType": "uint256",
          "name": "tokenId",
          "type": "uint256"
        }
      ],
      "name": "ownerOf",
      "outputs": [
        {
          "internalType": "address",
          "name": "",
          "type": "address"
        }
      ],
      "stateMutability": "view",
      "type": "function"
    },
    {
      "inputs": [
        {
          "internalType": "address",
          "name": "from",
          "type": "address"
        },
        {
          "internalType": "address",
          "name": "to",
          "type": "address"
        },
        {
          "internalType": "uint256",
          "name": "tokenId",
          "type": "uint256"
        }
      ],
      "name": "safeTransferFrom",
      "outputs": [],
      "stateMutability": "nonpayable",
      "type": "function"
    },
    {
      "inputs": [
        {
          "internalType": "address",
          "name": "from",
          "type": "address"
        },
        {
          "internalType": "address",
          "name": "to",
          "type": "address"
        },
        {
          "internalType": "uint256",
          "name": "tokenId",
          "type": "uint256"
        },
        {
          "internalType": "bytes",
          "name": "data",
          "type": "bytes"
        }
      ],
      "name": "safeTransferFrom",
      "outputs": [],
      "stateMutability": "nonpayable",
      "type": "function"
    },
    {
      "inputs": [
        {
          "internalType": "address",
          "name": "operator",
          "type": "address"
        },
        {
          "internalType": "bool",
          "name": "approved",
          "type": "bool"
        }
      ],
      "name": "setApprovalForAll",
      "outputs": [],
      "stateMutability": "nonpayable",
      "type": "function"
    },
    {
      "inputs": [
        {
          "internalType": "bytes4",
          "name": "interfaceId",
          "type": "bytes4"
        }
      ],
      "name": "supportsInterface",
      "outputs": [
        {
          "internalType": "bool",
          "name": "",
          "type": "bool"
        }
      ],
      "stateMutability": "view",
      "type": "function"
    },
    {
      "inputs": [],
      "name": "symbol",
      "outputs": [
        {
          "internalType": "string",
          "name": "",
          "type": "string"
        }
      ],
      "stateMutability": "view",
      "type": "function"
    },
    {
      "inputs": [],
      "name": "tokenCount",
      "outputs": [
        {
          "internalType": "uint256",
          "name": "",
          "type": "uint256"
        }
      ],
      "stateMutability": "view",
      "type": "function"
    },
    {
      "inputs": [
        {
          "internalType": "uint256",
          "name": "tokenId",
          "type": "uint256"
        }
      ],
      "name": "tokenURI",
      "outputs": [
        {
          "internalType": "string",
          "name": "",
          "type": "string"
        }
      ],
      "stateMutability": "view",
      "type": "function"
    },
    {
      "inputs": [
        {
          "internalType": "address",
          "name": "from",
          "type": "address"
        },
        {
          "internalType": "address",
          "name": "to",
          "type": "address"
        },
        {
          "internalType": "uint256",
          "name": "tokenId",
          "type": "uint256"
        }
      ],
      "name": "transferFrom",
      "outputs": [],
      "stateMutability": "nonpayable",
      "type": "function"
    }
  ],
  "bytecode": "0x60806040523480156200001157600080fd5b506040518060400160405280600881526020017f44617070204e46540000000000000000000000000000000000000000000000008152506040518060400160405280600481526020017f444150500000000000000000000000000000000000000000000000000000000081525081600090816200008f919062000324565b508060019081620000a1919062000324565b5050506200040b565b600081519050919050565b7f4e487b7100000000000000000000000000000000000000000000000000000000600052604160045260246000fd5b7f4e487b7100000000000000000000000000000000000000000000000000000000600052602260045260246000fd5b600060028204905060018216806200012c57607f821691505b602082108103620001425762000141620000e4565b5b50919050565b60008190508160005260206000209050919050565b60006020601f8301049050919050565b600082821b905092915050565b600060088302620001ac7fffffffffffffffffffffffffffffffffffffffffffffffffffffffffffffffff826200016d565b620001b886836200016d565b95508019841693508086168417925050509392505050565b6000819050919050565b6000819050919050565b600062000205620001ff620001f984620001d0565b620001da565b620001d0565b9050919050565b6000819050919050565b6200022183620001e4565b6200023962000230826200020c565b8484546200017a565b825550505050565b600090565b6200025062000241565b6200025d81848462000216565b505050565b5b8181101562000285576200027960008262000246565b60018101905062000263565b5050565b601f821115620002d4576200029e8162000148565b620002a9846200015d565b81016020851015620002b9578190505b620002d1620002c8856200015d565b83018262000262565b50505b505050565b600082821c905092915050565b6000620002f960001984600802620002d9565b1980831691505092915050565b6000620003148383620002e6565b9150826002028217905092915050565b6200032f82620000aa565b67ffffffffffffffff8111156200034b576200034a620000b5565b5b62000357825462000113565b6200036482828562000289565b600060209050601f8311600181146200039c576000841562000387578287015190505b62000393858262000306565b86555062000403565b601f198416620003ac8662000148565b60005b82811015620003d657848901518255600182019150602085019450602081019050620003af565b86831015620003f65784890151620003f2601f891682620002e6565b8355505b6001600288020188555050505b505050505050565b612416806200041b6000396000f3fe608060405234801561001057600080fd5b50600436106100f55760003560e01c806370a0823111610097578063b88d4fde11610066578063b88d4fde14610284578063c87b56dd146102a0578063d85d3d27146102d0578063e985e9c514610300576100f5565b806370a08231146101fc57806395d89b411461022c5780639f181b5e1461024a578063a22cb46514610268576100f5565b8063095ea7b3116100d3578063095ea7b31461017857806323b872dd1461019457806342842e0e146101b05780636352211e146101cc576100f5565b806301ffc9a7146100fa57806306fdde031461012a578063081812fc14610148575b600080fd5b610114600480360381019061010f9190611881565b610330565b60405161012191906118c9565b60405180910390f35b610132610391565b60405161013f9190611974565b60405180910390f35b610162600480360381019061015d91906119cc565b610423565b60405161016f9190611a3a565b60405180910390f35b610192600480360381019061018d9190611a81565b61043f565b005b6101ae60048036038101906101a99190611ac1565b610455565b005b6101ca60048036038101906101c59190611ac1565b610557565b005b6101e660048036038101906101e191906119cc565b610577565b6040516101f39190611a3a565b60405180910390f35b61021660048036038101906102119190611b14565b610589565b6040516102239190611b50565b60405180910390f35b610234610643565b6040516102419190611974565b60405180910390f35b6102526106d5565b60405161025f9190611b50565b60405180910390f35b610282600480360381019061027d9190611b97565b6106db565b005b61029e60048036038101906102999190611d0c565b6106f1565b005b6102ba60048036038101906102b591906119cc565b61070e565b6040516102c79190611974565b60405180910390f35b6102ea60048036038101906102e59190611e30565b610821565b6040516102f79190611b50565b60405180910390f35b61031a60048036038101906103159190611e79565b61085f565b60405161032791906118c9565b60405180910390f35b6000634906490660e01b7bffffffffffffffffffffffffffffffffffffffffffffffffffffffff1916827bffffffffffffffffffffffffffffffffffffffffffffffffffffffff1916148061038a5750610389826108f3565b5b9050919050565b6060600080546103a090611ee8565b80601f01602080910402602001604051908101604052809291908181526020018280546103cc90611ee8565b80156104195780601f106103ee57610100808354040283529160200191610419565b820191906000526020600020905b8154815290600101906020018083116103fc57829003601f168201915b5050505050905090565b600061042e826109d5565b5061043882610a5d565b9050919050565b610451828261044c610a9a565b610aa2565b5050565b600073ffffffffffffffffffffffffffffffffffffffff168273ffffffffffffffffffffffffffffffffffffffff16036104c75760006040517f64a0ae920000000000000000000000000000000000000000000000000000000081526004016104be9190611a3a565b60405180910390fd5b60006104db83836104d6610a9a565b610ab4565b90508373ffffffffffffffffffffffffffffffffffffffff168173ffffffffffffffffffffffffffffffffffffffff1614610551578382826040517f64283d7b00000000000000000000000000000000000000000000000000000000815260040161054893929190611f19565b60405180910390fd5b50505050565b610572838383604051806020016040528060008152506106f1565b505050565b6000610582826109d5565b9050919050565b60008073ffffffffffffffffffffffffffffffffffffffff168273ffffffffffffffffffffffffffffffffffffffff16036105fc5760006040517f89c62b640000000000000000000000000000000000000000000000000000000081526004016105f39190611a3a565b60405180910390fd5b600360008373ffffffffffffffffffffffffffffffffffffffff1673ffffffffffffffffffffffffffffffffffffffff168152602001908152602001600020549050919050565b60606001805461065290611ee8565b80601f016020809104026020016040519081016040528092919081815260200182805461067e90611ee8565b80156106cb5780601f106106a0576101008083540402835291602001916106cb565b820191906000526020600020905b8154815290600101906020018083116106ae57829003601f168201915b5050505050905090565b60075481565b6106ed6106e6610a9a565b8383610cce565b5050565b6106fc848484610455565b61070884848484610e3d565b50505050565b6060610719826109d5565b50600060066000848152602001908152602001600020805461073a90611ee8565b80601f016020809104026020016040519081016040528092919081815260200182805461076690611ee8565b80156107b35780601f10610788576101008083540402835291602001916107b3565b820191906000526020600020905b81548152906001019060200180831161079657829003601f168201915b5050505050905060006107c4610ff4565b905060008151036107d957819250505061081c565b60008251111561080e5780826040516020016107f6929190611f8c565b6040516020818303038152906040529250505061081c565b6108178461100b565b925050505b919050565b60006007600081548092919061083690611fdf565b91905055506000600754905061084c3382611074565b6108568184611092565b80915050919050565b6000600560008473ffffffffffffffffffffffffffffffffffffffff1673ffffffffffffffffffffffffffffffffffffffff16815260200190815260200160002060008373ffffffffffffffffffffffffffffffffffffffff1673ffffffffffffffffffffffffffffffffffffffff16815260200190815260200160002060009054906101000a900460ff16905092915050565b60007f80ac58cd000000000000000000000000000000000000000000000000000000007bffffffffffffffffffffffffffffffffffffffffffffffffffffffff1916827bffffffffffffffffffffffffffffffffffffffffffffffffffffffff191614806109be57507f5b5e139f000000000000000000000000000000000000000000000000000000007bffffffffffffffffffffffffffffffffffffffffffffffffffffffff1916827bffffffffffffffffffffffffffffffffffffffffffffffffffffffff1916145b806109ce57506109cd826110ee565b5b9050919050565b6000806109e183611158565b9050600073ffffffffffffffffffffffffffffffffffffffff168173ffffffffffffffffffffffffffffffffffffffff1603610a5457826040517f7e273289000000000000000000000000000000000000000000000000000000008152600401610a4b9190611b50565b60405180910390fd5b80915050919050565b60006004600083815260200190815260200160002060009054906101000a900473ffffffffffffffffffffffffffffffffffffffff169050919050565b600033905090565b610aaf8383836001611195565b505050565b600080610ac084611158565b9050600073ffffffffffffffffffffffffffffffffffffffff168373ffffffffffffffffffffffffffffffffffffffff1614610b0257610b0181848661135a565b5b600073ffffffffffffffffffffffffffffffffffffffff168173ffffffffffffffffffffffffffffffffffffffff1614610b9357610b44600085600080611195565b6001600360008373ffffffffffffffffffffffffffffffffffffffff1673ffffffffffffffffffffffffffffffffffffffff168152602001908152602001600020600082825403925050819055505b600073ffffffffffffffffffffffffffffffffffffffff168573ffffffffffffffffffffffffffffffffffffffff1614610c16576001600360008773ffffffffffffffffffffffffffffffffffffffff1673ffffffffffffffffffffffffffffffffffffffff168152602001908152602001600020600082825401925050819055505b846002600086815260200190815260200160002060006101000a81548173ffffffffffffffffffffffffffffffffffffffff021916908373ffffffffffffffffffffffffffffffffffffffff160217905550838573ffffffffffffffffffffffffffffffffffffffff168273ffffffffffffffffffffffffffffffffffffffff167fddf252ad1be2c89b69c2b068fc378daa952ba7f163c4a11628f55a4df523b3ef60405160405180910390a4809150509392505050565b600073ffffffffffffffffffffffffffffffffffffffff168273ffffffffffffffffffffffffffffffffffffffff1603610d3f57816040517f5b08ba18000000000000000000000000000000000000000000000000000000008152600401610d369190611a3a565b60405180910390fd5b80600560008573ffffffffffffffffffffffffffffffffffffffff1673ffffffffffffffffffffffffffffffffffffffff16815260200190815260200160002060008473ffffffffffffffffffffffffffffffffffffffff1673ffffffffffffffffffffffffffffffffffffffff16815260200190815260200160002060006101000a81548160ff0219169083151502179055508173ffffffffffffffffffffffffffffffffffffffff168373ffffffffffffffffffffffffffffffffffffffff167f17307eab39ab6107e8899845ad3d59bd9653f200f220920489ca2b5937696c3183604051610e3091906118c9565b60405180910390a3505050565b60008373ffffffffffffffffffffffffffffffffffffffff163b1115610fee578273ffffffffffffffffffffffffffffffffffffffff1663150b7a02610e81610a9a565b8685856040518563ffffffff1660e01b8152600401610ea3949392919061207c565b6020604051808303816000875af1925050508015610edf57506040513d601f19601f82011682018060405250810190610edc91906120dd565b60015b610f63573d8060008114610f0f576040519150601f19603f3d011682016040523d82523d6000602084013e610f14565b606091505b506000815103610f5b57836040517f64a0ae92000000000000000000000000000000000000000000000000000000008152600401610f529190611a3a565b60405180910390fd5b805181602001fd5b63150b7a0260e01b7bffffffffffffffffffffffffffffffffffffffffffffffffffffffff1916817bffffffffffffffffffffffffffffffffffffffffffffffffffffffff191614610fec57836040517f64a0ae92000000000000000000000000000000000000000000000000000000008152600401610fe39190611a3a565b60405180910390fd5b505b50505050565b606060405180602001604052806000815250905090565b6060611016826109d5565b506000611021610ff4565b90506000815111611041576040518060200160405280600081525061106c565b8061104b8461141e565b60405160200161105c929190611f8c565b6040516020818303038152906040525b915050919050565b61108e8282604051806020016040528060008152506114ec565b5050565b806006600084815260200190815260200160002090816110b291906122b6565b507ff8e1a15aba9398e019f0b49df1a4fde98ee17ae345cb5f6b5e2c27f5033e8ce7826040516110e29190611b50565b60405180910390a15050565b60007f01ffc9a7000000000000000000000000000000000000000000000000000000007bffffffffffffffffffffffffffffffffffffffffffffffffffffffff1916827bffffffffffffffffffffffffffffffffffffffffffffffffffffffff1916149050919050565b60006002600083815260200190815260200160002060009054906101000a900473ffffffffffffffffffffffffffffffffffffffff169050919050565b80806111ce5750600073ffffffffffffffffffffffffffffffffffffffff168273ffffffffffffffffffffffffffffffffffffffff1614155b156113025760006111de846109d5565b9050600073ffffffffffffffffffffffffffffffffffffffff168373ffffffffffffffffffffffffffffffffffffffff161415801561124957508273ffffffffffffffffffffffffffffffffffffffff168173ffffffffffffffffffffffffffffffffffffffff1614155b801561125c575061125a818461085f565b155b1561129e57826040517fa9fbf51f0000000000000000000000000000000000000000000000000000000081526004016112959190611a3a565b60405180910390fd5b811561130057838573ffffffffffffffffffffffffffffffffffffffff168273ffffffffffffffffffffffffffffffffffffffff167f8c5be1e5ebec7d5bd14f71427d1e84f3dd0314c0f7b2291e5b200ac8c7c3b92560405160405180910390a45b505b836004600085815260200190815260200160002060006101000a81548173ffffffffffffffffffffffffffffffffffffffff021916908373ffffffffffffffffffffffffffffffffffffffff16021790555050505050565b611365838383611508565b61141957600073ffffffffffffffffffffffffffffffffffffffff168373ffffffffffffffffffffffffffffffffffffffff16036113da57806040517f7e2732890000000000000000000000000000000000000000000000000000000081526004016113d19190611b50565b60405180910390fd5b81816040517f177e802f000000000000000000000000000000000000000000000000000000008152600401611410929190612388565b60405180910390fd5b505050565b60606000600161142d846115c9565b01905060008167ffffffffffffffff81111561144c5761144b611be1565b5b6040519080825280601f01601f19166020018201604052801561147e5781602001600182028036833780820191505090505b509050600082602001820190505b6001156114e1578080600190039150507f3031323334353637383961626364656600000000000000000000000000000000600a86061a8153600a85816114d5576114d46123b1565b5b0494506000850361148c575b819350505050919050565b6114f6838361171c565b6115036000848484610e3d565b505050565b60008073ffffffffffffffffffffffffffffffffffffffff168373ffffffffffffffffffffffffffffffffffffffff16141580156115c057508273ffffffffffffffffffffffffffffffffffffffff168473ffffffffffffffffffffffffffffffffffffffff1614806115815750611580848461085f565b5b806115bf57508273ffffffffffffffffffffffffffffffffffffffff166115a783610a5d565b73ffffffffffffffffffffffffffffffffffffffff16145b5b90509392505050565b600080600090507a184f03e93ff9f4daa797ed6e38ed64bf6a1f0100000000000000008310611627577a184f03e93ff9f4daa797ed6e38ed64bf6a1f010000000000000000838161161d5761161c6123b1565b5b0492506040810190505b6d04ee2d6d415b85acef81000000008310611664576d04ee2d6d415b85acef8100000000838161165a576116596123b1565b5b0492506020810190505b662386f26fc10000831061169357662386f26fc100008381611689576116886123b1565b5b0492506010810190505b6305f5e10083106116bc576305f5e10083816116b2576116b16123b1565b5b0492506008810190505b61271083106116e15761271083816116d7576116d66123b1565b5b0492506004810190505b6064831061170457606483816116fa576116f96123b1565b5b0492506002810190505b600a8310611713576001810190505b80915050919050565b600073ffffffffffffffffffffffffffffffffffffffff168273ffffffffffffffffffffffffffffffffffffffff160361178e5760006040517f64a0ae920000000000000000000000000000000000000000000000000000000081526004016117859190611a3a565b60405180910390fd5b600061179c83836000610ab4565b9050600073ffffffffffffffffffffffffffffffffffffffff168173ffffffffffffffffffffffffffffffffffffffff16146118105760006040517f73c6ac6e0000000000000000000000000000000000000000000000000000000081526004016118079190611a3a565b60405180910390fd5b505050565b6000604051905090565b600080fd5b600080fd5b60007fffffffff0000000000000000000000000000000000000000000000000000000082169050919050565b61185e81611829565b811461186957600080fd5b50565b60008135905061187b81611855565b92915050565b6000602082840312156118975761189661181f565b5b60006118a58482850161186c565b91505092915050565b60008115159050919050565b6118c3816118ae565b82525050565b60006020820190506118de60008301846118ba565b92915050565b600081519050919050565b600082825260208201905092915050565b60005b8381101561191e578082015181840152602081019050611903565b60008484015250505050565b6000601f19601f8301169050919050565b6000611946826118e4565b61195081856118ef565b9350611960818560208601611900565b6119698161192a565b840191505092915050565b6000602082019050818103600083015261198e818461193b565b905092915050565b6000819050919050565b6119a981611996565b81146119b457600080fd5b50565b6000813590506119c6816119a0565b92915050565b6000602082840312156119e2576119e161181f565b5b60006119f0848285016119b7565b91505092915050565b600073ffffffffffffffffffffffffffffffffffffffff82169050919050565b6000611a24826119f9565b9050919050565b611a3481611a19565b82525050565b6000602082019050611a4f6000830184611a2b565b92915050565b611a5e81611a19565b8114611a6957600080fd5b50565b600081359050611a7b81611a55565b92915050565b60008060408385031215611a9857611a9761181f565b5b6000611aa685828601611a6c565b9250506020611ab7858286016119b7565b9150509250929050565b600080600060608486031215611ada57611ad961181f565b5b6000611ae886828701611a6c565b9350506020611af986828701611a6c565b9250506040611b0a868287016119b7565b9150509250925092565b600060208284031215611b2a57611b2961181f565b5b6000611b3884828501611a6c565b91505092915050565b611b4a81611996565b82525050565b6000602082019050611b656000830184611b41565b92915050565b611b74816118ae565b8114611b7f57600080fd5b50565b600081359050611b9181611b6b565b92915050565b60008060408385031215611bae57611bad61181f565b5b6000611bbc85828601611a6c565b9250506020611bcd85828601611b82565b9150509250929050565b600080fd5b600080fd5b7f4e487b7100000000000000000000000000000000000000000000000000000000600052604160045260246000fd5b611c198261192a565b810181811067ffffffffffffffff82111715611c3857611c37611be1565b5b80604052505050565b6000611c4b611815565b9050611c578282611c10565b919050565b600067ffffffffffffffff821115611c7757611c76611be1565b5b611c808261192a565b9050602081019050919050565b82818337600083830152505050565b6000611caf611caa84611c5c565b611c41565b905082815260208101848484011115611ccb57611cca611bdc565b5b611cd6848285611c8d565b509392505050565b600082601f830112611cf357611cf2611bd7565b5b8135611d03848260208601611c9c565b91505092915050565b60008060008060808587031215611d2657611d2561181f565b5b6000611d3487828801611a6c565b9450506020611d4587828801611a6c565b9350506040611d56878288016119b7565b925050606085013567ffffffffffffffff811115611d7757611d76611824565b5b611d8387828801611cde565b91505092959194509250565b600067ffffffffffffffff821115611daa57611da9611be1565b5b611db38261192a565b9050602081019050919050565b6000611dd3611dce84611d8f565b611c41565b905082815260208101848484011115611def57611dee611bdc565b5b611dfa848285611c8d565b509392505050565b600082601f830112611e1757611e16611bd7565b5b8135611e27848260208601611dc0565b91505092915050565b600060208284031215611e4657611e4561181f565b5b600082013567ffffffffffffffff811115611e6457611e63611824565b5b611e7084828501611e02565b91505092915050565b60008060408385031215611e9057611e8f61181f565b5b6000611e9e85828601611a6c565b9250506020611eaf85828601611a6c565b9150509250929050565b7f4e487b7100000000000000000000000000000000000000000000000000000000600052602260045260246000fd5b60006002820490506001821680611f0057607f821691505b602082108103611f1357611f12611eb9565b5b50919050565b6000606082019050611f2e6000830186611a2b565b611f3b6020830185611b41565b611f486040830184611a2b565b949350505050565b600081905092915050565b6000611f66826118e4565b611f708185611f50565b9350611f80818560208601611900565b80840191505092915050565b6000611f988285611f5b565b9150611fa48284611f5b565b91508190509392505050565b7f4e487b7100000000000000000000000000000000000000000000000000000000600052601160045260246000fd5b6000611fea82611996565b91507fffffffffffffffffffffffffffffffffffffffffffffffffffffffffffffffff820361201c5761201b611fb0565b5b600182019050919050565b600081519050919050565b600082825260208201905092915050565b600061204e82612027565b6120588185612032565b9350612068818560208601611900565b6120718161192a565b840191505092915050565b60006080820190506120916000830187611a2b565b61209e6020830186611a2b565b6120ab6040830185611b41565b81810360608301526120bd8184612043565b905095945050505050565b6000815190506120d781611855565b92915050565b6000602082840312156120f3576120f261181f565b5b6000612101848285016120c8565b91505092915050565b60008190508160005260206000209050919050565b60006020601f8301049050919050565b600082821b905092915050565b60006008830261216c7fffffffffffffffffffffffffffffffffffffffffffffffffffffffffffffffff8261212f565b612176868361212f565b95508019841693508086168417925050509392505050565b6000819050919050565b60006121b36121ae6121a984611996565b61218e565b611996565b9050919050565b6000819050919050565b6121cd83612198565b6121e16121d9826121ba565b84845461213c565b825550505050565b600090565b6121f66121e9565b6122018184846121c4565b505050565b5b818110156122255761221a6000826121ee565b600181019050612207565b5050565b601f82111561226a5761223b8161210a565b6122448461211f565b81016020851015612253578190505b61226761225f8561211f565b830182612206565b50505b505050565b600082821c905092915050565b600061228d6000198460080261226f565b1980831691505092915050565b60006122a6838361227c565b9150826002028217905092915050565b6122bf826118e4565b67ffffffffffffffff8111156122d8576122d7611be1565b5b6122e28254611ee8565b6122ed828285612229565b600060209050601f831160018114612320576000841561230e578287015190505b612318858261229a565b865550612380565b601f19841661232e8661210a565b60005b8281101561235657848901518255600182019150602085019450602081019050612331565b86831015612373578489015161236f601f89168261227c565b8355505b6001600288020188555050505b505050505050565b600060408201905061239d6000830185611a2b565b6123aa6020830184611b41565b9392505050565b7f4e487b7100000000000000000000000000000000000000000000000000000000600052601260045260246000fdfea2646970667358221220f64c9272a33b20ec9ba2579a9383716a5d875b7513742d52c113a45924867d1964736f6c63430008140033",
  "linkReferences": {},
  "deployedLinkReferences": {}
}